:100000000C9434000C9451000C9451000C94510049
:100010000C9487000C94E5000C9451000C94510052
:100020000C9451000C9451000C9451000C947401E8
:100030000C9451000C9451000C9451000C945100FC
:100040000C9451000C9451000C9451000C945100EC
:100050000C9451000C9451000C9451000C945100DC
:100060000C9451000C94510011241FBECFEFD8E026
:10007000DEBFCDBF11E0A0E0B1E0E4ECFCE002C0E7
:1000800005900D92A034B107D9F721E0A0E4B1E0CA
:1000900001C01D92A036B207E1F70E9408020C943D
:1000A00060060C9400000895E1E8F0E0808188602B
:1000B0008083808185608083EFE6F0E080818260CC
:1000C000808384E294EF9093890080938800089560
:1000D000E0EBF0E0808183608083808180688083B2
:1000E00080E88093B300E1EBF0E08081876080835B
:1000F000089505966AE070E00E94670361507109F7
:1001000008F4089585E38A95F1F70000F7CF1F9270
:100110000F920FB60F9211248F939F9386B1809305
:10012000450180914501807180935B01809145017B
:1001300080728093440180910001909101010197A8
:1001400019F580915B0181110EC01092010110928E
:1001500000011092850010928400809181008560DA
:10016000809381002D9A80914401811106C081E025
:1001700090E090930101809300019F918F910F90E7
:100180000FBE0F901F901895809100019091010172
:10019000892B99F780915B01811104C010920101B4
:1001A00010920001809144018111E7CF809181007C
:1001B000887F809381002D9881E090E090930101E9
:1001C0008093000180934201D8CF1F920F920FB607
:1001D0000F9211248F939F9389B180934501809151
:1001E0004501847080935B01809145018870809304
:1001F000440180914801811115C080915B018823E1
:1002000049F081E080934B01809140019091410140
:10021000019617C0809144018823B9F083E0809350
:100220004B010AC0809148018130B1F580915B019A
:1002300081112CC010924B0180914001909141019D
:1002400001979093410180934001809140019091EA
:10025000410184369105ECF183E690E090934101F1
:100260008093400190914B0180914801981739F09B
:1002700081E08093430180914B01809348019F91DD
:100280008F910F900FBE0F901F9018958091440191
:100290008823D9F282E0B6CF80914801823061F4A0
:1002A00080915B01811102C083E0ACCF8091440159
:1002B0008111CBCF81E0B3CF80915B01882311F016
:1002C00082E0ADCF809144018111BFCF10924B01EC
:1002D0009BCF809140019091410197FFC3CF109235
:1002E000410110924001BECF1F920F920FB60F92A4
:1002F00011248F939F93EF93FF93E1E8F0E08081C7
:10030000887F808381E090E090934701809346014D
:100310009093010180930001FF91EF919F918F9144
:100320000F900FBE0F901F9018959BB19F709BB9B7
:100330009BB1807F892B8BB9299A299A2998089596
:10034000CF93C82F28980E9495018C2F8295807F8B
:100350000E9495018FE39FE10197F1F700C0000033
:10036000CF910895811104C080E8860F0C94A001FC
:1003700080ECFBCF84B1836084B98AB1806F8AB985
:100380008FE59AEE0197F1F700C0000080E30E942C
:1003900095018FE19EE40197F1F700C0000080E332
:1003A0000E9495018FED91E00197F1F700C00000E8
:1003B00080E30E94950180E20E9495018FE39FE116
:1003C0000197F1F700C0000088E20E94A0018FE0D1
:1003D0000C94A001CF93C82F289A0E9495018C2FCE
:1003E0008295807F0E9495018FE39FE10197F1F74D
:1003F00000C00000CF910895CF93DF93EC01899165
:10040000811103C0DF91CF9108950E94EA01F7CFD7
:10041000CF93DF93CDB7DEB72D970FB6F894DEBF3D
:100420000FBECDBF78940E94BA010E9454000E9472
:10043000680070E060E090E080E00E94B20186E039
:1004400091E00E94FC0170E060E081E090E00E9499
:10045000B20185E191E00E94FC012FEF47EA81E6BD
:10046000215040408040E1F700C0000081E090E072
:100470000E94A00180918100887F8093810084B1D7
:10048000886384B987B18E6087B987B18F7C87B95B
:10049000519A8AB1827F8AB988B1806388B9809184
:1004A000680082608093680080916C008063809314
:1004B0006C008FE0682E712C98E1E92E95E1F92E01
:1004C0000AE010E025E2C22E21E0D22E3DE0332EDC
:1004D000CE0101965C0188248394912C54E6452E2C
:1004E000512C80914201882309F44EC080918400F0
:1004F00090918500B3010E94530370934A01609369
:1005000049016091490170914A01C7010E94670346
:1005100070935A01609359016091490170914A01A9
:10052000C7010E94670390935F0180935E018091F1
:100530005E0190915F01E0915901F0915A01209183
:10054000490130914A01B8010E9467039F938F933C
:10055000FF93EF933F932F93DF92CF921F923F929F
:10056000BF92AF920E947B0370E060E090E080E079
:100570000E94B201C5010E94FC01109242010FB617
:10058000F894DEBF0FBECDBF809146019091470128
:10059000892B79F070E060E090E080E00E94B20189
:1005A00084E391E00E94FC012D98909201018092D9
:1005B00000012091590130915A01809140019091A0
:1005C0004101821793071CF485B5846085BD209195
:1005D000590130915A0149EE4203C001439F900DE9
:1005E0001124B2010E9467036D5D7F4F77FD60E0CB
:1005F0006093B30010928B0010928A0080915C018E
:1006000090915D012091590130915A01B8010E94E9
:100610006703621773071CF42B9A2A9862CF8091A4
:100620005C0190915D012091590130915A01B8010E
:100630000E946703261737071CF42A9A2B9851CF7C
:1006400080915C0190915D0120915E0130915F018C
:10065000B8010E9467038217930711F42B98DDCF2E
:1006600080915C0190915D0120915E0130915F016C
:10067000B8010E946703821793071CF4439A4298BB
:1006800030CF80915C0190915D0120915E013091AD
:100690005F01B8010E946703281739070CF021CFCA
:1006A000429A43981ECFAA1BBB1B51E107C0AA1F49
:1006B000BB1FA617B70710F0A61BB70B881F991F03
:1006C0005A95A9F780959095BC01CD01089597FBA7
:1006D000072E16F4009407D077FD09D00E9453032B
:1006E00007FC05D03EF4909581959F4F0895709535
:1006F00061957F4F0895AEE0B0E0E1E8F3E00C943F
:1007000037060D891E898F89988D26E02C831A83E0
:10071000098397FF02C080E090E801979E838D8354
:10072000AE01455E5F4F698D7A8DCE0101960E94C4
:10073000AB034D815E8157FD0AC02F81388542177A
:1007400053070CF49A01020F131FF80110822E9622
:10075000E4E00C945306ABE0B0E0E1EBF3E00C9482
:1007600029067C013B018A01FC01178216828381E4
:1007700081FFC8C1CE0101965C01F7019381F301AD
:1007800093FD859193FF81913F01882309F453C123
:10079000853239F493FD859193FF81913F01853234
:1007A00029F4B70190E00E949B05E7CF912C212C02
:1007B000312CFFE1F31538F08B3211F190F48032D7
:1007C00009F1833229F137FC3CC020ED280F2A3093
:1007D00050F536FE20C08AE0989E200D1124922EFE
:1007E00006C08D3291F0803371F7689430F8F301D0
:1007F00093FD859193FF81913F018111DACF21C053
:10080000689431F8689432F8F2CF689433F8EFCFF7
:10081000689434F8ECCFEAE02E9E200D1124222EAD
:10082000689435F8E4CF8E3229F436FC04C168941C
:1008300036F8DDCF8C3619F4689437F8D8CF88367F
:10084000B1F2982F9F7D95549330E0F08336A1F15B
:100850008337C1F1833509F063C02801F2E04F0E00
:10086000511CF801C080D180692D70E036FC02C0B7
:100870006FEF7FEFC6010E9485054C01689437F841
:1008800082010AC00C5F1F4FFFE3F9838824839421
:10089000912C6501E89437F833FE2DC0522C811459
:1008A000910471F5552009F468CFB70180E290E01A
:1008B0000E949B055A94F6CFF801808189830E5FD0
:1008C0001F4FE4CF2801F2E04F0E511CF801C08009
:1008D000D180692D70E036FC02C06FEF7FEFC6015A
:1008E0000E9490054C018201D5CFB70180E290E0D3
:1008F0000E949B052A942814190409F0B0F7CECF62
:10090000F60137FC859137FE81916F01B70190E0C8
:100910000E949B0551105A94F1E08F1A9108BFCFA5
:10092000843619F0893609F077C0F80137FE6BC0BC
:1009300060817181828193810C5F1F4FF32DFF765F
:100940003F2E97FF09C090958095709561957F4FD8
:100950008F4F9F4F689437F82AE030E0A5010E943E
:10096000CB05C82ECA188C2C432C36FE0CC0E8943C
:1009700040F8C91440F434FE05C032FC03C0F32D26
:10098000FE7E4F2E892C44FE95C0FE01EC0DF11D1C
:100990008081803309F087C0242D297E422E842D4A
:1009A0008870582E43FC95C040FE8FC09C2C82144A
:1009B00018F42C0C922C981844FE91C0B70180E3D7
:1009C00090E00E949B0542FE09C088E790E041FE4E
:1009D00002C088E590E0B7010E949B05C91408F4A5
:1009E0008AC0CA94D12C9FEFC91AD90ACA0CDB1C41
:1009F000F60182916F01B70190E00E949B05AC1453
:100A0000BD04B1F74FCF60817181072E000C880BB8
:100A1000990B0E5F1F4F92CFD32CE894D4F82AE0A5
:100A200030E0853739F1232D297FD22E8F3601F121
:100A300048F48835A9F0F701868197812B96E2E189
:100A40000C944506803749F08837A9F7D4FE02C0D8
:100A50006894D2F820E130E00DC06894D4F8F6CF65
:100A600034FE03C0822F8660D82E20E132E002C01F
:100A700028E030E0F801D7FE0FC0608171818281EB
:100A800093810C5F1F4FA5010E94CB05C82ECA1889
:100A90003D2CE89437F867CF6081718190E080E069
:100AA0000E5F1F4FF0CF42FC02C0839478CF839437
:100AB000839475CF842D867809F471CFF6CFB70172
:100AC00080E290E00E949B0583948214C0F3512C35
:100AD00073CF522C5818821408F46ECFF8CF842D9F
:100AE000867809F47BCF8BE241FE80E247FC8DE201
:100AF000B70190E071CFB70180E390E00E949B05C1
:100B00009A946CCF8FEF9FEF99CFFC0105906150C5
:100B100070400110D8F7809590958E0F9F1F089513
:100B2000FC016150704001900110D8F780959095BC
:100B30008E0F9F1F08950F931F93CF93DF93182F4E
:100B4000092FEB018B8181FD09C01FEF0FEF812F72
:100B5000902FDF91CF911F910F91089582FF14C0C4
:100B60002E813F818C819D81281739073CF4E881D3
:100B7000F981CF0101969983888310838E819F81AB
:100B800001969F838E83E3CFE885F985812F0995B0
:100B9000892BA1F3DACFFA01AA27283051F12031AD
:100BA00081F1E8946F936E7F6E5F7F4F8F4F9F4F01
:100BB000AF4FB1E03ED0B4E03CD0670F781F891F43
:100BC0009A1FA11D680F791F8A1F911DA11D6A0F11
:100BD000711D811D911DA11D20D009F468943F91C4
:100BE0002AE0269F11243019305D3193DEF6CF01C3
:100BF0000895462F4770405D4193B3E00FD0C9F789
:100C0000F6CF462F4F70405D4A3318F0495D31FDF5
:100C10004052419302D0A9F7EACFB4E0A695979548
:100C2000879577956795BA95C9F70097610571051E
:100C300008959B01AC010A2E069457954795379568
:100C40002795BA95C9F7620F731F841F951FA01DC2
:100C500008952F923F924F925F926F927F928F9260
:100C60009F92AF92BF92CF92DF92EF92FF920F933B
:100C70001F93CF93DF93CDB7DEB7CA1BDB0B0FB645
:100C8000F894DEBF0FBECDBF09942A883988488802
:100C90005F846E847D848C849B84AA84B984C88498
:100CA000DF80EE80FD800C811B81AA81B981CE0F8F
:100CB000D11D0FB6F894DEBF0FBECDBFED01089574
:040CC000F894FFCFD6
:100CC4000100555343004545203130392050726F9F
:100CD4006A656374004570687261696D2073617937
:100CE40073206869002533646D73203D2025752EBB
:100CF40025752000746F6F206C617465203A28009C
:00000001FF
