:100000000C9434000C9451000C9451000C94510049
:100010000C9486000C94DB000C9451000C9451005D
:100020000C9451000C9451000C9451000C948201DA
:100030000C9451000C9451000C94A3010C945100A9
:100040000C9451000C9451000C9451000C945100EC
:100050000C9451000C9451000C9451000C945100DC
:100060000C9451000C94510011241FBECFEFD8E026
:10007000DEBFCDBF11E0A0E0B1E0EAE8FCE002C0E5
:1000800005900D92A234B107D9F721E0A2E4B1E0C6
:1000900001C01D92AB35B207E1F70E943F020C94FC
:1000A00043060C94000084B5826084BD85B58360EE
:1000B00085BDEEE6F0E08081826080838FEF87BDB2
:1000C000089510928000E1E8F0E0808188608083EC
:1000D000808185608083EFE6F0E0808182608083AC
:1000E00084E294EF90938900809388000895E0EB78
:1000F000F0E0108280818368808387E18093B30081
:10010000E1EBF0E080818760808308951F920F9279
:100110000FB60F9211245F936F937F938F939F93EA
:10012000AF93BF9386B180934B0180914B01807157
:100130008093560180914B01807280934A01809197
:10014000560181110EC0109201011092000110920F
:1001500085001092840080918100856080938100E9
:100160002D9A80914A0181111AC0809181008A7F65
:10017000809381002D9880918400909185006FE09C
:1001800070E00E942403709343016093420181E078
:1001900090E0909301018093000180934801BF910A
:1001A000AF919F918F917F916F915F910F900FBE53
:1001B0000F901F9018951F920F920FB60F92112457
:1001C0002F933F934F935F936F937F938F939F935F
:1001D000AF93BF93EF93FF9389B1809350018091C8
:1001E00050018470809351018091500188708093F8
:1001F000530180914E01811115C0809151018823D6
:1002000049F081E080934F01809146019091470130
:10021000019618C0809153018823C1F083E0809338
:100220004F010BC080914E01813009F049C080918F
:10023000510181113FC010924F0180914601909170
:1002400047010197909347018093460180914601B1
:10025000909147018436910508F44FC083E690E001
:10026000909347018093460190914F0180914E01F8
:10027000981739F081E08093490180914F01809374
:100280004E01609146017091470188EC90E00E9418
:10029000FA05FF91EF91BF91AF919F918F917F915F
:1002A0006F915F914F913F912F910F900FBE0F90E3
:1002B0001F90189580915301882341F282E0A2CFCC
:1002C00080914E01823061F480915101811102C010
:1002D00083E098CF809153018111B8CF81E09FCF07
:1002E00080915101882311F082E099CF80915301D0
:1002F0008111ACCF10924F0187CF80914601909130
:100300004701B2CF1F920F920FB60F9211248F9315
:100310009F93EF93FF93E1E8F0E08081887F8083F3
:1003200081E090E090934D0180934C019093010106
:1003300080930001FF91EF919F918F910F900FBEDD
:100340000F901F9018951F920F920FB60F921124C5
:100350002F938F939F9388B192E0892788B98091DA
:100360004401909145010196909345018093440189
:1003700027B580914401909145012817190609F08D
:1003800018F485B58C7F85BD9F918F912F910F902B
:100390000FBE0F901F9018959BB19F709BB99BB19A
:1003A000807F892B8BB9299A299A29980895CF9310
:1003B000C82F28980E94CC018C2F8295807F0E94A4
:1003C000CC018FE39FE10197F1F700C00000CF91CE
:1003D0000895811104C080E8860F0C94D70180EC49
:1003E000FBCF84B1836084B98AB1806F8AB98FE50D
:1003F0009AEE0197F1F700C0000080E30E94CC0163
:100400008FE19EE40197F1F700C0000080E30E94B5
:10041000CC018FED91E00197F1F700C0000080E37F
:100420000E94CC0180E20E94CC018FE39FE1019702
:10043000F1F700C0000088E20E94D7018FE00C9421
:10044000D701CF93C82F289A0E94CC018C2F829578
:10045000807F0E94CC018FE39FE10197F1F700C0FC
:100460000000CF910895CF93DF93EC018991811122
:1004700003C0DF91CF9108950E942102F7CFCF935F
:10048000DF93CDB7DEB72D970FB6F894DEBF0FBE62
:10049000CDBF78940E94F1010E9461000E94770014
:1004A0000E94530060E080E00E94E90188E091E052
:1004B0000E94330260E081E00E94E90187E191E05F
:1004C0000E9433022FEF47EA81E6215040408040EE
:1004D000E1F700C0000081E00E94D70184B1886389
:1004E00084B987B18E6087B987B18F7C87B9519AFB
:1004F0008AB1827F8AB988B1806388B980916800A7
:1005000086608093680080916C00806380936C00AB
:1005100080916D008C6080936D0008E115E18AE0A8
:10052000A82EB12C97E2E92E91E0F92E2DE0522E63
:10053000CE0101966C0188248394912C44E6642EAC
:10054000712C80914801882309F441C060914201D7
:1005500070914301C8010E94380370935501609364
:1005600054016091420170914301C8010E94380317
:1005700090935A01809359018091590190915A01A9
:10058000E0915401F09155012091420130914301D5
:10059000B5010E9438039F938F93FF93EF933F938E
:1005A0002F93FF92EF921F925F92DF92CF920E9461
:1005B0004C0360E080E00E94E901C6010E94330222
:1005C000109248010FB6F894DEBF0FBECDBF8091E8
:1005D0004C0190914D01892B69F060E080E00E9410
:1005E000E90186E391E00E9433022D989092010187
:1005F0008092000120915401309155018091460173
:10060000909147018217930738F410924501109298
:10061000440185B5846085BD209154013091550118
:1006200049EE4203C001439F900D1124B3010E9483
:1006300038036D5D7F4F77FD60E06093B3001092EB
:100640008B0010928A007DCFAA1BBB1B51E107C013
:10065000AA1FBB1FA617B70710F0A61BB70B881F52
:10066000991F5A95A9F780959095BC01CD010895E1
:1006700097FB072E16F4009407D077FD09D00E944F
:10068000240307FC05D03EF4909581959F4F089573
:10069000709561957F4F0895AEE0B0E0E2E5F3E03C
:1006A0000C941A060D891E898F89988D26E02C835B
:1006B0001A83098397FF02C080E090E801979E8328
:1006C0008D83AE01455E5F4F698D7A8DCE010196B7
:1006D0000E947C034D815E8157FD0AC02F813885C1
:1006E000421753070CF49A01020F131FF8011082EE
:1006F0002E96E4E00C943606ABE0B0E0E2E8F3E0DE
:100700000C940C067C013B018A01FC0117821682C5
:10071000838181FFC8C1CE0101965C01F7019381FD
:10072000F30193FD859193FF81913F01882309F4A3
:1007300053C1853239F493FD859193FF81913F0137
:10074000853229F4B70190E00E946C05E7CF912C27
:10075000212C312CFFE1F31538F08B3211F190F49C
:10076000803209F1833229F137FC3CC020ED280F9B
:100770002A3050F536FE20C08AE0989E200D1124C4
:10078000922E06C08D3291F0803371F7689430F864
:10079000F30193FD859193FF81913F018111DACFA0
:1007A00021C0689431F8689432F8F2CF689433F835
:1007B000EFCF689434F8ECCFEAE02E9E200D1124A0
:1007C000222E689435F8E4CF8E3229F436FC04C129
:1007D000689436F8DDCF8C3619F4689437F8D8CFA2
:1007E0008836B1F2982F9F7D95549330E0F0833690
:1007F000A1F18337C1F1833509F063C02801F2E02C
:100800004F0E511CF801C080D180692D70E036FC7C
:1008100002C06FEF7FEFC6010E9456054C0168943D
:1008200037F882010AC00C5F1F4FFFE3F983882469
:100830008394912C6501E89437F833FE2DC0522C37
:100840008114910471F5552009F468CFB70180E255
:1008500090E00E946C055A94F6CFF801808189835C
:100860000E5F1F4FE4CF2801F2E04F0E511CF8013C
:10087000C080D180692D70E036FC02C06FEF7FEF41
:10088000C6010E9461054C018201D5CFB70180E20B
:1008900090E00E946C052A942814190409F0B0F71E
:1008A000CECFF60137FC859137FE81916F01B701FC
:1008B00090E00E946C0551105A94F1E08F1A910853
:1008C000BFCF843619F0893609F077C0F80137FEBA
:1008D0006BC060817181828193810C5F1F4FF32D0A
:1008E000FF763F2E97FF09C0909580957095619592
:1008F0007F4F8F4F9F4F689437F82AE030E0A50173
:100900000E949C05C82ECA188C2C432C36FE0CC0A5
:10091000E89440F8C91440F434FE05C032FC03C02A
:10092000F32DFE7E4F2E892C44FE95C0FE01EC0D6A
:10093000F11D8081803309F087C0242D297E422E4D
:10094000842D8870582E43FC95C040FE8FC09C2C8F
:10095000821418F42C0C922C981844FE91C0B70104
:1009600080E390E00E946C0542FE09C088E790E0B9
:1009700041FE02C088E590E0B7010E946C05C914F1
:1009800008F48AC0CA94D12C9FEFC91AD90ACA0C9C
:10099000DB1CF60182916F01B70190E00E946C05AB
:1009A000AC14BD04B1F74FCF60817181072E000CEC
:1009B000880B990B0E5F1F4F92CFD32CE894D4F87D
:1009C0002AE030E0853739F1232D297FD22E8F366A
:1009D00001F148F48835A9F0F701868197812B96BB
:1009E000E2E10C942806803749F08837A9F7D4FE55
:1009F00002C06894D2F820E130E00DC06894D4F8C9
:100A0000F6CF34FE03C0822F8660D82E20E132E07C
:100A100002C028E030E0F801D7FE0FC0608171818C
:100A2000828193810C5F1F4FA5010E949C05C82EF7
:100A3000CA183D2CE89437F867CF6081718190E047
:100A400080E00E5F1F4FF0CF42FC02C0839478CF4E
:100A50008394839475CF842D867809F471CFF6CF73
:100A6000B70180E290E00E946C0583948214C0F389
:100A7000512C73CF522C5818821408F46ECFF8CF33
:100A8000842D867809F47BCF8BE241FE80E247FC1F
:100A90008DE2B70190E071CFB70180E390E00E9452
:100AA0006C059A946CCF8FEF9FEF99CFFC01059066
:100AB000615070400110D8F7809590958E0F9F1F60
:100AC0000895FC016150704001900110D8F78095A5
:100AD00090958E0F9F1F08950F931F93CF93DF93D1
:100AE000182F092FEB018B8181FD09C01FEF0FEF3C
:100AF000812F902FDF91CF911F910F91089582FF49
:100B000014C02E813F818C819D81281739073CF4C8
:100B1000E881F981CF0101969983888310838E81C2
:100B20009F8101969F838E83E3CFE885F985812F8E
:100B30000995892BA1F3DACFFA01AA27283051F1C0
:100B4000203181F1E8946F936E7F6E5F7F4F8F4FFE
:100B50009F4FAF4FB1E03ED0B4E03CD0670F781F5D
:100B6000891F9A1FA11D680F791F8A1F911DA11D42
:100B70006A0F711D811D911DA11D20D009F468947B
:100B80003F912AE0269F11243019305D3193DEF623
:100B9000CF010895462F4770405D4193B3E00FD0D9
:100BA000C9F7F6CF462F4F70405D4A3318F0495DC4
:100BB00031FD4052419302D0A9F7EACFB4E0A695A7
:100BC0009795879577956795BA95C9F700976105C9
:100BD000710508959B01AC010A2E0694579547951F
:100BE00037952795BA95C9F7620F731F841F951F14
:100BF000A01D0895262FF999FECF92BD81BDF89AC8
:100C0000019700B4021639F01FBA20BD0FB6F89450
:100C1000FA9AF99A0FBE08952F923F924F925F92DF
:100C20006F927F928F929F92AF92BF92CF92DF92FC
:100C3000EF92FF920F931F93CF93DF93CDB7DEB761
:100C4000CA1BDB0B0FB6F894DEBF0FBECDBF0994F5
:100C50002A88398848885F846E847D848C849B844C
:100C6000AA84B984C884DF80EE80FD800C811B815A
:100C7000AA81B981CE0FD11D0FB6F894DEBF0FBE89
:0A0C8000CDBFED010895F894FFCFF9
:100C8A000100320055534300454520313039205088
:100C9A00726F6A656374004570687261696D20736A
:100CAA00617973206869002533646D73203D2025BE
:100CBA00752E25752000746F6F206C617465203A5B
:020CCA00280000
:00000001FF
