:100000000C9434000C9451000C9451000C94510049
:100010000C94A5000C9451000C9451000C945100C8
:100020000C9451000C9451000C9451000C9451000C
:100030000C9451000C9451000C9451000C945100FC
:100040000C9451000C9451000C9451000C945100EC
:100050000C9451000C9451000C9451000C945100DC
:100060000C9451000C94510011241FBECFEFD8E026
:10007000DEBFCDBF11E0A0E0B1E0E6EDF4E002C0EC
:1000800005900D92AA31B107D9F721E0AAE1B1E0BC
:1000900001C01D92AF32B207E1F70E94D7010C9464
:1000A00069020C940000E0E8F0E0808183628083C4
:1000B000E1E8F0E080818861808380E49CE99093AE
:1000C00089008093880088EB9BE090938B0080935D
:1000D0008A008081826080830895E0EBF0E0808177
:1000E0008360808380818068808380E88093B30010
:1000F000E1EBF0E08081876080830895880F991F8D
:1001000090932201809321019C0150E040E060E047
:1001100074E284EF90E00E941402309389002093EF
:100120008800E1E8F0E08081816080830895059691
:100130006AE070E00E9400026150710908F40895BD
:1001400085E38A95F1F70000F7CF1F920F920FB663
:100150000F9211242F938F939F9386B180931E014A
:1001600080911E01807180932E0180911E0180720A
:1001700080931D0180911F0181111EC080912E016D
:10018000882391F081E08093200180911A01909161
:100190001B01019690931B0180931A01809100012D
:1001A00090910101C29621C080911D01882309F11F
:1001B00083E0809320010BC080911F01813009F002
:1001C00050C080912E01811146C010922001809173
:1001D0001A0190911B01019790931B0180931A01C2
:1001E0008091000190910101C29790930101809349
:1001F000000180911A0190911B018F3F910509F038
:100200000CF44CC08FEF90E090931B0180931A0187
:1002100080910001909101018C3D954008F049C00A
:100220008CED95E090930101809300019091200165
:1002300080911F01981739F081E080931C01809113
:10024000200180931F019F918F912F910F900FBEDE
:100250000F901F90189580911D01882351F282E024
:1002600092CF80911F01823061F480912E01811123
:1002700002C083E088CF80911D018111BACF81E057
:1002800098CF80912E01882311F082E092CF809147
:100290001D018111AECF1092200177CF80911A01FC
:1002A00090911B0197FFB4CF10921B0110921A017D
:1002B000AFCF80910001909101018539914108F4FF
:1002C000B5CF84E991E1AECF9BB19F709BB99BB153
:1002D000807F892B8BB9299A299A29980895CF93E1
:1002E000C82F28980E9464018C2F8295807F0E94DD
:1002F00064018FE39FE10197F1F700C00000CF9107
:100300000895811104C080E8860F0C946F0180EC81
:10031000FBCF84B1836084B98AB1806F8AB98FE5DD
:100320009AEE0197F1F700C0000080E30E9464019B
:100330008FE19EE40197F1F700C0000080E30E9486
:1003400064018FED91E00197F1F700C0000080E3B8
:100350000E94640180E20E9464018FE39FE10197A3
:10036000F1F700C0000088E20E946F018FE00C945A
:100370006F01CF93C82F289A0E9464018C2F829519
:10038000807F0E9464018FE39FE10197F1F700C035
:100390000000CF910895CF93DF93EC0189918111F3
:1003A00003C0DF91CF9108950E94B901F7CF239A3E
:1003B000229A88B1806388B90E9453000E946D0020
:1003C0008091680082608093680080916C008063F7
:1003D00080936C00789480911C018823E1F38091D4
:1003E0001A0190911B018093B300809100019091BC
:1003F000010190938B0080938A0010921C01EBCF37
:1004000097FB072E16F4009407D077FD09D00E94C1
:10041000330207FC05D03EF4909581959F4F0895D7
:10042000709561957F4F0895052E97FB1EF40094FB
:100430000E942B0257FD07D00E94470207FC03D001
:100440004EF40C942B0250954095309521953F4FDA
:100450004F4F5F4F089590958095709561957F4FB0
:100460008F4F9F4F0895AA1BBB1B51E107C0AA1FC6
:10047000BB1FA617B70710F0A61BB70B881F991F45
:100480005A95A9F780959095BC01CD010895A1E2F8
:100490001A2EAA1BBB1BFD010DC0AA1FBB1FEE1FFE
:1004A000FF1FA217B307E407F50720F0A21BB30B49
:1004B000E40BF50B661F771F881F991F1A9469F7C5
:1004C00060957095809590959B01AC01BD01CF0121
:0604D0000895F894FFCF2F
:1004D600B80B060126014A015D018801B801EE014B
:0A04E6000B02555343009411DC058E
:00000001FF
